{
  "address": "0xcb12Ac8649eA06Cbb15e29032163938D5F86D8ad",
  "abi": [
    {
      "inputs": [
        {
          "internalType": "address",
          "name": "_governor",
          "type": "address"
        },
        {
          "internalType": "contract IKeep3rV1",
          "name": "_KP3R",
          "type": "address"
        },
        {
          "internalType": "address",
          "name": "_WETH",
          "type": "address"
        },
        {
          "internalType": "address",
          "name": "_POOL",
          "type": "address"
        }
      ],
      "stateMutability": "nonpayable",
      "type": "constructor"
    },
    {
      "inputs": [],
      "name": "InvalidTWAP",
      "type": "error"
    },
    {
      "inputs": [],
      "name": "ZeroAddress",
      "type": "error"
    },
    {
      "anonymous": false,
      "inputs": [],
      "name": "PendingGovernorAccepted",
      "type": "event"
    },
    {
      "anonymous": false,
      "inputs": [
        {
          "indexed": false,
          "internalType": "address",
          "name": "pendingGovernor",
          "type": "address"
        }
      ],
      "name": "PendingGovernorSet",
      "type": "event"
    },
    {
      "anonymous": false,
      "inputs": [
        {
          "indexed": false,
          "internalType": "uint32",
          "name": "twapPeriod",
          "type": "uint32"
        }
      ],
      "name": "TWAPSet",
      "type": "event"
    },
    {
      "inputs": [],
      "name": "BASE",
      "outputs": [
        {
          "internalType": "uint256",
          "name": "",
          "type": "uint256"
        }
      ],
      "stateMutability": "view",
      "type": "function"
    },
    {
      "inputs": [],
      "name": "KP3R",
      "outputs": [
        {
          "internalType": "contract IKeep3rV1",
          "name": "",
          "type": "address"
        }
      ],
      "stateMutability": "view",
      "type": "function"
    },
    {
      "inputs": [],
      "name": "MAX",
      "outputs": [
        {
          "internalType": "uint256",
          "name": "",
          "type": "uint256"
        }
      ],
      "stateMutability": "view",
      "type": "function"
    },
    {
      "inputs": [],
      "name": "MIN",
      "outputs": [
        {
          "internalType": "uint256",
          "name": "",
          "type": "uint256"
        }
      ],
      "stateMutability": "view",
      "type": "function"
    },
    {
      "inputs": [],
      "name": "ORACLE_QUOTE",
      "outputs": [
        {
          "internalType": "uint256",
          "name": "",
          "type": "uint256"
        }
      ],
      "stateMutability": "view",
      "type": "function"
    },
    {
      "inputs": [],
      "name": "POOL",
      "outputs": [
        {
          "internalType": "address",
          "name": "",
          "type": "address"
        }
      ],
      "stateMutability": "view",
      "type": "function"
    },
    {
      "inputs": [],
      "name": "SWAP",
      "outputs": [
        {
          "internalType": "uint256",
          "name": "",
          "type": "uint256"
        }
      ],
      "stateMutability": "view",
      "type": "function"
    },
    {
      "inputs": [],
      "name": "TARGETBOND",
      "outputs": [
        {
          "internalType": "uint256",
          "name": "",
          "type": "uint256"
        }
      ],
      "stateMutability": "view",
      "type": "function"
    },
    {
      "inputs": [],
      "name": "WETH",
      "outputs": [
        {
          "internalType": "address",
          "name": "",
          "type": "address"
        }
      ],
      "stateMutability": "view",
      "type": "function"
    },
    {
      "inputs": [],
      "name": "acceptPendingGovernor",
      "outputs": [],
      "stateMutability": "nonpayable",
      "type": "function"
    },
    {
      "inputs": [
        {
          "internalType": "address",
          "name": "keeper",
          "type": "address"
        }
      ],
      "name": "bonds",
      "outputs": [
        {
          "internalType": "uint256",
          "name": "",
          "type": "uint256"
        }
      ],
      "stateMutability": "view",
      "type": "function"
    },
    {
      "inputs": [
        {
          "internalType": "uint128",
          "name": "_amountIn",
          "type": "uint128"
        }
      ],
      "name": "getQuote",
      "outputs": [
        {
          "internalType": "uint256",
          "name": "_amountOut",
          "type": "uint256"
        }
      ],
      "stateMutability": "view",
      "type": "function"
    },
    {
      "inputs": [
        {
          "internalType": "uint256",
          "name": "gasUsed",
          "type": "uint256"
        }
      ],
      "name": "getQuoteLimit",
      "outputs": [
        {
          "internalType": "uint256",
          "name": "",
          "type": "uint256"
        }
      ],
      "stateMutability": "view",
      "type": "function"
    },
    {
      "inputs": [
        {
          "internalType": "address",
          "name": "_origin",
          "type": "address"
        },
        {
          "internalType": "uint256",
          "name": "_gasUsed",
          "type": "uint256"
        }
      ],
      "name": "getQuoteLimitFor",
      "outputs": [
        {
          "internalType": "uint256",
          "name": "",
          "type": "uint256"
        }
      ],
      "stateMutability": "view",
      "type": "function"
    },
    {
      "inputs": [],
      "name": "governor",
      "outputs": [
        {
          "internalType": "address",
          "name": "",
          "type": "address"
        }
      ],
      "stateMutability": "view",
      "type": "function"
    },
    {
      "inputs": [
        {
          "internalType": "address",
          "name": "_account",
          "type": "address"
        }
      ],
      "name": "isGovernor",
      "outputs": [
        {
          "internalType": "bool",
          "name": "_isGovernor",
          "type": "bool"
        }
      ],
      "stateMutability": "view",
      "type": "function"
    },
    {
      "inputs": [
        {
          "internalType": "address",
          "name": "_account",
          "type": "address"
        }
      ],
      "name": "isPendingGovernor",
      "outputs": [
        {
          "internalType": "bool",
          "name": "_isPendingGovernor",
          "type": "bool"
        }
      ],
      "stateMutability": "view",
      "type": "function"
    },
    {
      "inputs": [],
      "name": "pendingGovernor",
      "outputs": [
        {
          "internalType": "address",
          "name": "",
          "type": "address"
        }
      ],
      "stateMutability": "view",
      "type": "function"
    },
    {
      "inputs": [
        {
          "internalType": "address",
          "name": "__pendingGovernor",
          "type": "address"
        }
      ],
      "name": "setPendingGovernor",
      "outputs": [],
      "stateMutability": "nonpayable",
      "type": "function"
    },
    {
      "inputs": [
        {
          "internalType": "uint32",
          "name": "_twapPeriod",
          "type": "uint32"
        }
      ],
      "name": "setTWAPPeriod",
      "outputs": [],
      "stateMutability": "nonpayable",
      "type": "function"
    },
    {
      "inputs": [],
      "name": "twapPeriod",
      "outputs": [
        {
          "internalType": "uint32",
          "name": "",
          "type": "uint32"
        }
      ],
      "stateMutability": "view",
      "type": "function"
    }
  ],
  "transactionHash": "0x7fc235e9015edac5756e409f0770ed5a7d612aceaa442bcd5ab4b09da03a9b0f",
  "args": [
    "0x0d5dc686d0a2abbfdafdfb4d0533e886517d4e83",
    "0x1ceb5cb57c4d4e2b2433641b95dd330a33185a44",
    "0xc02aaa39b223fe8d0a0e5c4f27ead9083c756cc2",
    "0x11B7a6bc0259ed6Cf9DB8F499988F9eCc7167bf5"
  ],
  "solcInputHash": "2b9b121aad176c817c2e4be4c961f8a5",
  "bytecode": "0x60e06040526001805463ffffffff60a01b1916600f60a31b1790553480156200002757600080fd5b506040516200183f3803806200183f8339810160408190526200004a9162000133565b836001600160a01b038116620000a65760405162461bcd60e51b815260206004820152601860248201527f476f7665726e61626c653a207a65726f20616464726573730000000000000000604482015260640160405180910390fd5b600080546001600160a01b0319166001600160a01b0392831617905583161580620000d857506001600160a01b038216155b80620000eb57506001600160a01b038116155b156200010a5760405163d92e233d60e01b815260040160405180910390fd5b6001600160601b0319606093841b811660805291831b821660a05290911b1660c05250620001b4565b600080600080608085870312156200014a57600080fd5b845162000157816200019b565b60208601519094506200016a816200019b565b60408601519093506200017d816200019b565b606086015190925062000190816200019b565b939692955090935050565b6001600160a01b0381168114620001b157600080fd5b50565b60805160601c60a05160601c60c05160601c61162f62000210600039600081816101f9015261046601526000818161023001526104a0015260008181610171015281816104c10152818161065001526106eb015261162f6000f3fe608060405234801561001057600080fd5b50600436106101375760003560e01c8063ad5c4648116100b8578063e43581b81161007c578063e43581b8146102a6578063ec342ad0146102c8578063f235757f146102d0578063f6207326146102e3578063fcf2280c1461030f578063fe10d7741461032257600080fd5b8063ad5c46481461022b578063b132ad2614610252578063d49d51811461025b578063df08aed514610263578063e3056a341461029557600080fd5b80631fba26cf116100ff5780631fba26cf146101c657806337a7f2b7146101d9578063525ea631146101e15780637535d246146101f45780638e686d561461021b57600080fd5b80630421d7f21461013c57806304d841081461016257806305e0b9a01461016c5780630c340a24146101ab57806313f6986d146101bc575b600080fd5b61014f61014a366004611202565b610335565b6040519081526020015b60405180910390f35b61014f620493e081565b6101937f000000000000000000000000000000000000000000000000000000000000000081565b6040516001600160a01b039091168152602001610159565b6000546001600160a01b0316610193565b6101c46103e9565b005b61014f6101d4366004611300565b61045c565b61014f600b81565b61014f6101ef366004611329565b6104eb565b6101937f000000000000000000000000000000000000000000000000000000000000000081565b61014f680ad78ebc5ac620000081565b6101937f000000000000000000000000000000000000000000000000000000000000000081565b61014f6161a881565b61014f600c81565b6102856102713660046111e5565b6001546001600160a01b0391821691161490565b6040519015158152602001610159565b6001546001600160a01b0316610193565b6102856102b43660046111e5565b6000546001600160a01b0391821691161490565b61014f600a81565b6101c46102de3660046111e5565b6104f7565b6001546102fa90600160a01b900463ffffffff1681565b60405163ffffffff9091168152602001610159565b6101c461031d36600461135b565b610559565b61014f6103303660046111e5565b61062e565b600080610360486161a861034c620493e087611420565b6103569190611420565b6101d4919061147a565b90506000600a610371600b8461147a565b61037b9190611466565b90506000600a61038c600c8561147a565b6103969190611466565b905060006103b56103a68861062e565b680ad78ebc5ac6200000610776565b90506103de83680ad78ebc5ac62000006103cf848661147a565b6103d99190611466565b61078e565b979650505050505050565b6001546001600160a01b031633146104525760405162461bcd60e51b815260206004820152602160248201527f476f7665726e61626c653a206f6e6c792070656e64696e6720676f7665726e6f6044820152603960f91b60648201526084015b60405180910390fd5b61045a61079e565b565b60006104e561049d7f0000000000000000000000000000000000000000000000000000000000000000600160149054906101000a900463ffffffff16610846565b837f00000000000000000000000000000000000000000000000000000000000000007f0000000000000000000000000000000000000000000000000000000000000000610a16565b92915050565b60006104e53283610335565b6000546001600160a01b0316331461054d5760405162461bcd60e51b815260206004820152601960248201527823b7bb32b93730b136329d1037b7363c9033b7bb32b93737b960391b6044820152606401610449565b61055681610b24565b50565b6000546001600160a01b031633146105af5760405162461bcd60e51b815260206004820152601960248201527823b7bb32b93730b136329d1037b7363c9033b7bb32b93737b960391b6044820152606401610449565b63ffffffff81166105d357604051634967c51160e01b815260040160405180910390fd5b6001805463ffffffff60a01b1916600160a01b63ffffffff8416908102919091179091556040519081527f257798892b15332c7675dd3f2c15b910e8b93a699ae9dd5f13f32ddbeb128ec3906020015b60405180910390a150565b60405163d8bff5a560e01b81526001600160a01b0382811660048301526000917f00000000000000000000000000000000000000000000000000000000000000009091169063d8bff5a59060240160206040518083038186803b15801561069457600080fd5b505afa1580156106a8573d6000803e3d6000fd5b505050506040513d601f19601f820116820180604052508101906106cc9190611342565b60405163a39744b560e01b81526001600160a01b0384811660048301527f000000000000000000000000000000000000000000000000000000000000000016602482018190529063a39744b59060440160206040518083038186803b15801561073457600080fd5b505afa158015610748573d6000803e3d6000fd5b505050506040513d601f19601f8201168201806040525081019061076c9190611342565b6104e59190611420565b60008183106107855781610787565b825b9392505050565b6000818310156107855781610787565b6001546001600160a01b03166107f65760405162461bcd60e51b815260206004820152601f60248201527f476f7665726e61626c653a206e6f2070656e64696e6720676f7665726e6f72006044820152606401610449565b60018054600080546001600160a01b03199081166001600160a01b0384161782559091169091556040517fdc57ca23c46d823853915ed5a090ca0ee9db5eb6a46f5c58e1c9158de861fd769190a1565b600063ffffffff82166108805760405162461bcd60e51b8152602060048201526002602482015261042560f41b6044820152606401610449565b60408051600280825260608201835260009260208301908036833701905050905082816000815181106108b5576108b56115b8565b602002602001019063ffffffff16908163ffffffff16815250506000816001815181106108e4576108e46115b8565b63ffffffff9092166020928302919091019091015260405163883bdbfd60e01b81526000906001600160a01b0386169063883bdbfd90610928908590600401611381565b60006040518083038186803b15801561094057600080fd5b505afa158015610954573d6000803e3d6000fd5b505050506040513d6000823e601f3d908101601f1916820160405261097c919081019061122e565b509050600081600081518110610994576109946115b8565b6020026020010151826001815181106109af576109af6115b8565b60200260200101516109c19190611499565b90506109d763ffffffff8616600683900b611438565b935060008160060b1280156109fe57506109fb63ffffffff8616600683900b611524565b15155b15610a0d57836103de81611500565b50505092915050565b600080610a2286610bc8565b90506001600160801b036001600160a01b03821611610aa8576000610a506001600160a01b0383168061147a565b9050836001600160a01b0316856001600160a01b031610610a8857610a83600160c01b876001600160801b031683610fe5565b610aa0565b610aa081876001600160801b0316600160c01b610fe5565b925050610b1b565b6000610ac76001600160a01b0383168068010000000000000000610fe5565b9050836001600160a01b0316856001600160a01b031610610aff57610afa600160801b876001600160801b031683610fe5565b610b17565b610b1781876001600160801b0316600160801b610fe5565b9250505b50949350505050565b6001600160a01b038116610b7a5760405162461bcd60e51b815260206004820152601860248201527f476f7665726e61626c653a207a65726f206164647265737300000000000000006044820152606401610449565b600180546001600160a01b0319166001600160a01b0383169081179091556040519081527f56bddfa0cee9697cebddf9acd7f23dc6583663b05e007b877056d05017994def90602001610623565b60008060008360020b12610bdf578260020b610bec565b8260020b610bec9061156f565b9050610bfb620d89e71961154c565b60020b811115610c315760405162461bcd60e51b81526020600482015260016024820152601560fa1b6044820152606401610449565b600060018216610c4557600160801b610c57565b6ffffcb933bd6fad37aa2d162d1a5940015b70ffffffffffffffffffffffffffffffffff1690506002821615610c96576080610c91826ffff97272373d413259a46990580e213a61147a565b901c90505b6004821615610cc0576080610cbb826ffff2e50f5f656932ef12357cf3c7fdcc61147a565b901c90505b6008821615610cea576080610ce5826fffe5caca7e10e4e61c3624eaa0941cd061147a565b901c90505b6010821615610d14576080610d0f826fffcb9843d60f6159c9db58835c92664461147a565b901c90505b6020821615610d3e576080610d39826fff973b41fa98c081472e6896dfb254c061147a565b901c90505b6040821615610d68576080610d63826fff2ea16466c96a3843ec78b326b5286161147a565b901c90505b6080821615610d92576080610d8d826ffe5dee046a99a2a811c461f1969c305361147a565b901c90505b610100821615610dbd576080610db8826ffcbe86c7900a88aedcffc83b479aa3a461147a565b901c90505b610200821615610de8576080610de3826ff987a7253ac413176f2b074cf7815e5461147a565b901c90505b610400821615610e13576080610e0e826ff3392b0822b70005940c7a398e4b70f361147a565b901c90505b610800821615610e3e576080610e39826fe7159475a2c29b7443b29c7fa6e889d961147a565b901c90505b611000821615610e69576080610e64826fd097f3bdfd2022b8845ad8f792aa582561147a565b901c90505b612000821615610e94576080610e8f826fa9f746462d870fdf8a65dc1f90e061e561147a565b901c90505b614000821615610ebf576080610eba826f70d869a156d2a1b890bb3df62baf32f761147a565b901c90505b618000821615610eea576080610ee5826f31be135f97d08fd981231505542fcfa661147a565b901c90505b62010000821615610f16576080610f11826f09aa508b5b7a84e1c677de54f3e99bc961147a565b901c90505b62020000821615610f41576080610f3c826e5d6af8dedb81196699c329225ee60461147a565b901c90505b62040000821615610f6b576080610f66826d2216e584f5fa1ea926041bedfe9861147a565b901c90505b62080000821615610f93576080610f8e826b048a170391f7dc42444e8fa261147a565b901c90505b60008460020b1315610fae57610fab81600019611466565b90505b610fbd64010000000082611538565b15610fc9576001610fcc565b60005b610fdd9060ff16602083901c611420565b949350505050565b60008080600019858709858702925082811083820303915050806000141561101f576000841161101457600080fd5b508290049050610787565b80841161102b57600080fd5b60008486880980840393811190920391905060008561104c816000196114e9565b611057906001611420565b16958690049593849004936000819003046001019050611077818461147a565b90931792600061108887600361147a565b6002189050611097818861147a565b6110a29060026114e9565b6110ac908261147a565b90506110b8818861147a565b6110c39060026114e9565b6110cd908261147a565b90506110d9818861147a565b6110e49060026114e9565b6110ee908261147a565b90506110fa818861147a565b6111059060026114e9565b61110f908261147a565b905061111b818861147a565b6111269060026114e9565b611130908261147a565b905061113c818861147a565b6111479060026114e9565b611151908261147a565b905061115d818661147a565b9998505050505050505050565b600082601f83011261117b57600080fd5b8151602061119061118b836113fc565b6113cb565b80838252828201915082860187848660051b89010111156111b057600080fd5b60005b858110156111d85781516111c6816115e4565b845292840192908401906001016111b3565b5090979650505050505050565b6000602082840312156111f757600080fd5b8135610787816115e4565b6000806040838503121561121557600080fd5b8235611220816115e4565b946020939093013593505050565b6000806040838503121561124157600080fd5b825167ffffffffffffffff8082111561125957600080fd5b818501915085601f83011261126d57600080fd5b8151602061127d61118b836113fc565b8083825282820191508286018a848660051b890101111561129d57600080fd5b600096505b848710156112cf5780518060060b81146112bb57600080fd5b8352600196909601959183019183016112a2565b50918801519196509093505050808211156112e957600080fd5b506112f68582860161116a565b9150509250929050565b60006020828403121561131257600080fd5b81356001600160801b038116811461078757600080fd5b60006020828403121561133b57600080fd5b5035919050565b60006020828403121561135457600080fd5b5051919050565b60006020828403121561136d57600080fd5b813563ffffffff8116811461078757600080fd5b6020808252825182820181905260009190848201906040850190845b818110156113bf57835163ffffffff168352928401929184019160010161139d565b50909695505050505050565b604051601f8201601f1916810167ffffffffffffffff811182821017156113f4576113f46115ce565b604052919050565b600067ffffffffffffffff821115611416576114166115ce565b5060051b60200190565b600082198211156114335761143361158c565b500190565b600082611447576114476115a2565b600160ff1b8214600019841416156114615761146161158c565b500590565b600082611475576114756115a2565b500490565b60008160001904831182151516156114945761149461158c565b500290565b60008160060b8360060b6000811281667fffffffffffff19018312811516156114c4576114c461158c565b81667fffffffffffff0183138116156114df576114df61158c565b5090039392505050565b6000828210156114fb576114fb61158c565b500390565b60008160020b627fffff1981141561151a5761151a61158c565b6000190192915050565b600082611533576115336115a2565b500790565b600082611547576115476115a2565b500690565b60008160020b627fffff198114156115665761156661158c565b60000392915050565b6000600160ff1b8214156115855761158561158c565b5060000390565b634e487b7160e01b600052601160045260246000fd5b634e487b7160e01b600052601260045260246000fd5b634e487b7160e01b600052603260045260246000fd5b634e487b7160e01b600052604160045260246000fd5b6001600160a01b038116811461055657600080fdfea2646970667358221220b56b301c578c0be639ca342d76f32997fb5b50e2166d0655cbe863a09fc151c064736f6c63430008070033",
  "devdoc": {
    "kind": "dev",
    "methods": {},
    "version": 1
  },
  "userdoc": {
    "kind": "user",
    "methods": {},
    "version": 1
  },
  "storageLayout": {
    "storage": [
      {
        "astId": 2236,
        "contract": "contracts/Keep3rV3Helper.sol:Keep3rV3Helper",
        "label": "_governor",
        "offset": 0,
        "slot": "0",
        "type": "t_address"
      },
      {
        "astId": 2238,
        "contract": "contracts/Keep3rV3Helper.sol:Keep3rV3Helper",
        "label": "_pendingGovernor",
        "offset": 0,
        "slot": "1",
        "type": "t_address"
      },
      {
        "astId": 2507,
        "contract": "contracts/Keep3rV3Helper.sol:Keep3rV3Helper",
        "label": "twapPeriod",
        "offset": 20,
        "slot": "1",
        "type": "t_uint32"
      }
    ],
    "types": {
      "t_address": {
        "encoding": "inplace",
        "label": "address",
        "numberOfBytes": "20"
      },
      "t_uint32": {
        "encoding": "inplace",
        "label": "uint32",
        "numberOfBytes": "4"
      }
    }
  }
}